:020000040800F2
:1000000000000220C55A0008F50A0008F70A000897
:10001000F90A0008FB0A0008FD0A000800000000B9
:10002000000000000000000000000000FF0A0008BF
:10003000010B000800000000030B0008050B00087E
:10004000155B0008155B0008155B0008155B0008D0
:10005000155B0008155B0008155B0008155B0008C0
:10006000155B0008155B0008155B0008155B0008B0
:10007000155B0008155B0008155B0008155B0008A0
:10008000155B0008155B0008155B0008155B000890
:10009000155B0008155B0008155B0008155B000880
:1000A000155B0008155B0008155B0008155B000870
:1000B000155B0008155B0008155B0008155B000860
:1000C000155B0008155B0008155B0008155B000850
:1000D000155B0008155B0008155B0008155B000840
:1000E000155B0008155B0008155B0008155B000830
:1000F000155B0008155B0008155B0008155B000820
:10010000155B0008155B0008155B0008155B00080F
:10011000155B0008155B0008155B0008155B0008FF
:10012000155B0008155B0008155B0008155B0008EF
:10013000155B00080000000000000000155B0008CF
:10014000155B0008155B0008155B00080D0B000827
:10015000155B0008155B0008155B0008155B0008BF
:10016000155B0008155B0008155B0008155B0008AF
:10017000155B0008155B000800000000000000008F
:08018000155B0008155B000887
:1001900010B5054C237833B9044B13B10448AFF3C1
:1001A00000800123237010BD6002002000000000C9
:1001B000046C000808B5034B1BB103490348AFF3B7
:1001C000008008BD0000000064020020046C0008EC
:1001D00001F0FF01102A2BDB10F0070F08D010F8F8
:1001E000013B013A8B422DD010F0070F42B3F6D1FC
:1001F000F0B441EA012141EA014122F007047FF015
:1002000000070023F0E80256083C85EA010586EA6B
:10021000010685FA47F5A3FA87F586FA47F6A5FAA7
:1002200087F68EB9EED1F0BC01F0FF0102F00702B3
:1002300032B110F8013B013A83EA010313B1F8D15E
:100240000020704701387047002D06BF354603383F
:10025000073815F0010F07D1013015F4807F02BF78
:10026000013015F4C03F0130F0BC0138704700BFC9
:1002700053B94AB9002908BF00281CBF4FF0FF310D
:100280004FF0FF3000F074B9ADF1080C6DE904CE09
:1002900000F006F8DDF804E0DDE9022304B0704761
:1002A0002DE9F047089D04468E46002B4DD18A4229
:1002B000944669D9B2FA82F252B101FA02F3C2F15C
:1002C000200120FA01F10CFA02FC41EA030E9440ED
:1002D0004FEA1C48210CBEFBF8F61FFA8CF708FB0E
:1002E00016E341EA034306FB07F199420AD91CEBE6
:1002F000030306F1FF3080F01F81994240F21C8118
:10030000023E63445B1AA4B2B3FBF8F008FB10335F
:1003100044EA034400FB07F7A7420AD91CEB040494
:1003200000F1FF3380F00A81A74240F20781644464
:10033000023840EA0640E41B00261DB1D4400023E9
:10034000C5E900433146BDE8F0878B4209D9002D4D
:1003500000F0EF800026C5E9000130463146BDE8D7
:10036000F087B3FA83F6002E4AD18B4202D3824241
:1003700000F2F980841A61EB030301209E46002DF0
:10038000E0D0C5E9004EDDE702B9FFDEB2FA82F245
:10039000002A40F09280A1EB0C014FEA1C471FFAA3
:1003A0008CFE0126200CB1FBF7F307FB131140EA8A
:1003B00001410EFB03F0884208D91CEB010103F157
:1003C000FF3802D2884200F2CB804346091AA4B219
:1003D000B1FBF7F007FB101144EA01440EFB00FEED
:1003E000A64508D91CEB040400F1FF3102D2A64552
:1003F00000F2BB800846A4EB0E0440EA03409CE7F1
:10040000C6F12007B34022FA07FC4CEA030C20FA9D
:1004100007F401FA06F31C43F9404FEA1C4900FABD
:1004200006F3B1FBF9F8200C1FFA8CFE09FB18113A
:1004300040EA014108FB0EF0884202FA06F20BD9AD
:100440001CEB010108F1FF3A80F08880884240F2FD
:100450008580A8F102086144091AA4B2B1FBF9F041
:1004600009FB101144EA014100FB0EFE8E4508D93C
:100470001CEB010100F1FF346CD28E456AD90238C1
:10048000614440EA0840A0FB0294A1EB0E01A142A6
:10049000C846A64656D353D05DB1B3EB080261EB14
:1004A0000E0101FA07F722FA06F3F1401F43C5E9EE
:1004B000007100263146BDE8F087C2F12003D84024
:1004C0000CFA02FC21FA03F3914001434FEA1C4766
:1004D0001FFA8CFEB3FBF7F007FB10360B0C43EA58
:1004E000064300FB0EF69E4204FA02F408D91CEB08
:1004F000030300F1FF382FD29E422DD90238634406
:100500009B1B89B2B3FBF7F607FB163341EA0341A5
:1005100006FB0EF38B4208D91CEB010106F1FF38F4
:1005200016D28B4214D9023E6144C91A46EA0046EB
:1005300038E72E46284605E70646E3E61846F8E67D
:100540004B45A9D2B9EB020864EB0C0E0138A3E7C6
:100550004646EAE7204694E74046D1E7D0467BE7A7
:10056000023B614432E7304609E76444023842E71F
:10057000704700BF10B514464FF6FF7392B20248A1
:1005800002F079FE204610BD7C02002072B6FEE724
:1005900000B595B03022002108A805F0F1FA00233B
:1005A000039304930593069307930193204A116CD8
:1005B00041F080511164126C02F080520192019A54
:1005C00002931C4B1A6842F480421A601B6803F4C1
:1005D00080430293029B012308934FF480330993D5
:1005E00002230E934FF480020F9204221092A8224D
:1005F000119212930723139308A802F041F898B9B7
:100600000F23039302230493002305934FF4A05375
:1006100006934FF480530793052103A802F096FA3E
:1006200020B915B05DF804FBFFF7B0FFFFF7AEFF90
:10063000003802400070004008B502F0E1FCFFF70E
:10064000A7FF00F00BF800F025F800F073F802485F
:1006500005F004FCFEE700BF1C6C000882B000211E
:1006600000910B4B1A6B42F080021A631A6B02F076
:1006700080020092009A01911A6B42F001021A6303
:100680001B6B03F001030193019B02B0704700BF95
:100690000038024008B50A480A4B03604FF4E133C2
:1006A000436000238360C36003610C224261836165
:1006B000C36102F0B1FD00B908BDFFF767FFFBE7BA
:1006C0007C020020004C004000B589B00023039359
:1006D00004930593069307930268144B9A4202D041
:1006E00009B05DF804FB0021019103F5F6331A6CA3
:1006F00042F400221A641A6C02F400220192019A58
:1007000002911A6B42F001021A631B6B03F00103A2
:100710000293029B0323039302220492069308236D
:10072000079303A9024802F0E7FAD9E7004C00401A
:100730000000024008B5002219491A4802F012FED2
:10074000E0B9002302221849164802F039FEC0B968
:100750001649144803F084FFB0B90023032214495A
:10076000104802F02DFE90B912490E4804F05AF9D3
:1007700080B90C4802F05AFE78B908BDFFF706FFB1
:10078000DFE7FFF703FFE3E7FFF700FFE5E7FFF72A
:10079000FDFEE9E7FFF7FAFEEBE7FFF7F7FEECE710
:1007A000F8000020C00200204401002000000020CA
:1007B000800100201401002030B589B0002303938C
:1007C00004930593069307930368B3F1A04F01D0F8
:1007D00009B030BD00250195164C236B43F0010391
:1007E0002363236B03F001030193019B4FF4C05378
:1007F000039302230493032306930A23079303A975
:100800000D4802F079FA636B43F08003636302954D
:10081000636C43F480436364636C03F4804302932A
:10082000029B2A462946432002F06AFB432002F03D
:100830009FFBCDE7003802400000024008B500F2FF
:10084000C441D0F8080502F03EFE08BD08B501EB32
:10085000C10300EB8303D3F88C22D0F8080502F023
:1008600090FF08BD08B501EBC10300EB8303DA6C10
:10087000D0F8080502F0ECFF08BD08B5D0F808056F
:1008800002F0A9FE08BD10B50446C3683BB1022BB7
:1008900001D1012104E0FFF779FE012100E00021F0
:1008A000D4F8080502F07DFED4F8080502F037FE02
:1008B00010BD000010B50446D0F8080502F074FE23
:1008C0002268D2F8003E43F00103C2F8003E236ADA
:1008D00023B1034A136943F00603136110BD00BF3F
:1008E00000ED00E008B5D0F8080502F067FE08BD8D
:1008F00008B5D0F8080502F0AAFE08BD08B5D0F882
:10090000080502F08DFE08BD08B5D0F8080502F014
:10091000B5FE08BD08B5D0F8080502F0B1FE08BD67
:1009200002780AB10020704710B503461A48C0F893
:100930000835C3F8EC024FF0A04303600623436080
:100940000222C260002303618261C36103624362C9
:10095000C362036300F023FAD0B90F4C8021204614
:1009600001F035F840220021204601F00AF88022EB
:100970000121204601F005F840220221204601F025
:1009800000F880220321204600F0FBFF002010BD6C
:10099000FFF7FCFDE1E700BFA0060020D0F8EC3235
:1009A00011F0800F08D101F07F0101EBC10103EBD1
:1009B000810191F87E02704701F07F0101EBC101D6
:1009C00003EB810191F83E00704708B5D0F8EC02C6
:1009D00000F009FC08BD032805D8DFE800F0050495
:1009E0000205012070470320704708B5D0F8EC02DB
:1009F00000F06CFAFFF7EFFF08BD08B594461A4601
:100A00006346D0F8EC0200F041FBFFF7E4FF08BDBD
:100A100008B5D0F8EC0200F07EFBFFF7DCFF08BD64
:100A200008B5D0F8EC0200F091FFFFF7D4FF08BD45
:100A300008B5D0F8EC0200F00EFCFFF7CCFF08BDC3
:100A400008B5D0F8EC0200F04AFCFFF7C4FF08BD7F
:100A500008B5D0F8EC0200F005FBFFF7BCFF08BDBD
:100A600008B5D0F8EC0200F0C7FBFFF7B4FF08BDF3
:100A700008B5D0F8EC0200F087FBFFF7ACFF08BD2B
:100A800000207047002070470020704770B5054671
:100A90000E46002404E0295D094805F059F90134A7
:100AA0003368A342F7D8074805F0D8F9064C294621
:100AB000204603F0EFFD204603F0FAFD002070BD54
:100AC000406C0008486C0008C002002010B5064CBD
:100AD00000220649204603F0CEFD0549204603F0DA
:100AE000D9FD002010BD00BFC0020020AC130020C3
:100AF000AC0B0020FEE7FEE7FEE7FEE7FEE77047EF
:100B00007047704708B502F095FA08BD08B502486D
:100B100000F03AFC08BD00BFA006002082B0002112
:100B200000910B4B5A6C42F480425A645A6C02F4A6
:100B300080420092009A01911A6C42F080521A642D
:100B40001B6C03F080530193019B02B0704700BF00
:100B50000038024012230B8000487047C400002078
:100B600004230B8000487047D800002000239342E4
:100B70001ED200B510E00CF1370C01F813C00001D3
:100B80004FEA430C0CF1010C4FF0000E01F80CE0A1
:100B90000133DBB2934209D24FEA107CB0F1204F0F
:100BA000E9D20CF1300C01F813C0E8E75DF804FB62
:100BB0007047000038B50B4BD3F8100AD3F8144A2D
:100BC000D3F8183AC01800D138BD074D0822A91C27
:100BD000FFF7CCFF042205F112012046FFF7C6FF04
:100BE000F2E700BF0070FF1FDC00002008B51A23E9
:100BF0000B80FFF7DFFF014808BD00BFDC000020CD
:100C00006A230380004870474C00002070477047FB
:100C10000A23038000487047B800002010B50A4638
:100C2000034C2146034803F07EFA204610BD00BF66
:100C3000AC1B00204C6C000808B50A4628B90549D1
:100C4000054803F070FA034808BD0249024803F062
:100C50006AFAF8E7AC1B00205C6C000808B50A468D
:100C600028B90549054803F05EFA034808BD024962
:100C7000024803F058FAF8E7AC1B0020746C000837
:100C800008B50A4628B90549054803F04CFA034857
:100C900008BD0249024803F046FAF8E7AC1B002001
:100CA000846C00087047002070474FF480330B605D
:100CB0004FF400731380002070470020704700201D
:100CC00070470020704700207047002070472DE9D2
:100CD000F04383B0D0F8008001EBC10300EB830345
:100CE000DA6D5B6D9A4254D807460C469B1A01EBAD
:100CF000C10200EB8202926C9A4200D31A4602F1C2
:100D000003094FEA990915E006F103094FEA990929
:100D100004EBC40507EB8505E96C3B7C0093B3B29B
:100D2000E2B2404601F023FAEB6C3344EB64EB6D26
:100D30003344EB6508EB441303F510639B699BB2E6
:100D40004B4512D304EBC40207EB8202D16D536D05
:100D500099420AD24BB15B1A04EBC40207EB820240
:100D6000966C9E42D0D31E46CEE704EBC40007EB40
:100D700080077A6DFB6D9A420FD804F00F040123AF
:100D8000A340D8F8344824EA0304C8F834480020C3
:100D900000E0012003B0BDE8F0830020FAE770B561
:100DA0008AB0002800F090800546046890F8BD34B1
:100DB0003BB3032385F8BD34E36B13F4807F01D18B
:100DC00000232B61286800F0EDFE2C4654F8106BD0
:100DD000EC460FCCACE80F000FCCACE80F0094E869
:100DE00003008CE803002B1D0ECB304600F01CFEE8
:100DF000044658B1022385F8BD34012420460AB0C8
:100E000070BD80F8BC34FFF7D7FCD2E7002128681A
:100E100001F0C4FB234616E003EBC30205EB82029C
:100E2000012182F83D1082F83C30A2F844300021C4
:100E300082F840109164D16403EBC30205EB820297
:100E400051650133DBB269688B42E5D316E004EBF0
:100E5000C40305EB8303002283F87D2283F87C42E0
:100E600083F88022C3F88822C3F88C2204EBC403E1
:100E700005EB8303C3F894220134E4B2A142E6D81F
:100E80002C4654F8106BEC460FCCACE80F000FCC9E
:100E9000ACE80F0094E803008CE803002B1D0ECB98
:100EA000304600F0DBFE044620B1022385F8BD3455
:100EB0000124A3E7002385F83830012385F8BD34E9
:100EC000286801F028FB99E7012497E7026890F869
:100ED000BC34012B19D010B50446012380F8BC3472
:100EE000836A012B09D0206800F056FE206801F0CB
:100EF00004FB002084F8BC0410BD8369012BF2D0F0
:100F0000936B43F480339363EDE702207047000056
:100F100070B504460D460068066C00EB411303F5FE
:100F200030639A682169012911D038498E4256D020
:100F30003DB905EBC50304EB8303D3F89432002BD2
:100F40005ED0E9B22046FFF781FC002070BD12F0B0
:100F5000080F09D02E498E42F7D912F4004FF4D071
:100F60004FF400429A60F0E712F0200F02D02022E6
:100F70009A60EAE712F0280FE7D125498E4206D998
:100F800012F4004F03D04FF400429A60DDE705EB06
:100F9000C50204EB8202D2F898121B69C3F3120354
:100FA000CB1AC2F89C327DB905EBC50204EB820274
:100FB000D2F894226AB105EBC50204EB8202D2F8A2
:100FC0008C120B44C2F88C32E9B22046FFF73EFC8B
:100FD000BBE704F2C442012101F022FBF4E712F462
:100FE000004F03D04FF400429A60AEE712F0200F9A
:100FF00001D020229A60E9B22046FFF727FCA4E73F
:1010000004F2C442002101F00BFB9AE70A31544F6D
:101010000A30544F38B5044603681D6C03EB411386
:10102000D3F8081B0E4A954207D903F5306311F433
:10103000004F02D04FF400429A602046FFF7FEFBBB
:10104000074B9D4202D92369012B01D0002038BDF6
:1010500004F2C4420121206801F0E2FAF6E700BF81
:101060000A30544F90F8BC34012B0DD010B5044613
:10107000012380F8BC3480F83810006801F02DFAA4
:10108000002084F8BC0410BD0220704738B5054626
:101090008C4611F0800F29D101F00F0E0EEBCE041B
:1010A000A40004F51E740444211D0EEBCE0E00EBCB
:1010B0008E0E00208EF87D020CF00F0C81F800C01F
:1010C000CA600B714A780AB1A1F808C0022B1DD082
:1010D00095F8BC34012B1CD0012385F8BC3428685A
:1010E00000F095FE002085F8BC0438BD01F00F002B
:1010F00000EBC001890038312944043100EBC00005
:1011000005EB8000012480F83D40D5E700234B71BA
:10111000DEE70220E9E710B504460A4611F0800F29
:1011200020D101F00F0000EBC0039B0003F51E73FC
:101130002344191D00EBC00004EB8000002380F85D
:101140007D3202F00F020A7094F8BC34012B19D0E2
:10115000012384F8BC34206800F0A8FE002084F845
:10116000BC0410BD01F00F0000EBC0039B0038333E
:101170002344191D00EBC00004EB8000012380F81C
:101180003D30DEE70220ECE710B501F00F0404EB80
:10119000C401890001F51E710144043104EBC40C43
:1011A00000EB8C0CCCF88C22CCF894320023CCF8D9
:1011B0009C328CF87D328CF87C420369012B06D07E
:1011C00064B9DAB2006800F0E1FE002010BD04EB63
:1011D000C40C00EB8C0CCCF89022F1E7DAB200687A
:1011E00000F0DCFFF1E701F00F0101EBC10100EBC2
:1011F0008101D1F89C02704710B501F00F0404EB97
:10120000C401890038310144043104EBC40C00EB03
:101210008C0CCCF84C20CCF854300023CCF85C304B
:1012200001238CF83D308CF83C400369012B06D03B
:1012300064B9DAB2006800F0A9FE002010BD04EB2A
:10124000C40C00EB8C0CCCF85020F1E7DAB200684B
:1012500000F0A4FFF1E738B501F00F0542689542B0
:1012600039D804460B4611F0800F1FD101EBC101A4
:10127000890001F51E710144043103EBC30300EB47
:101280008303002283F87D2201238B700D7094F874
:10129000BC34012B21D0012384F8BC34206801F038
:1012A000C1F88DB1002084F8BC0438BD05EBC50140
:1012B000890038310144043105EBC50300EB830399
:1012C000012283F83D20DFE704F2C442217C20683C
:1012D00001F0A6F9E6E70120E7E70220E5E701F0E3
:1012E0000F034268934231D810B5044611F0800FC5
:1012F0001ED103EBC301890001F51E7101440431C5
:1013000003EBC30200EB8202002082F87D02002280
:101310008A700B7094F8BC34012B19D0012384F827
:10132000BC34206801F0ABF8002084F8BC0410BD88
:1013300003EBC301890038310144043103EBC302DC
:1013400000EB8202012082F83D00E0E701207047B7
:101350000220ECE708B511F0800F0CD101F00F016D
:1013600001EBC101890001F51E71014404310068DF
:1013700000F09EFE08BD01F00F0101EBC1018900E4
:10138000383101440431F2E72DE9F04F83B00446CF
:101390000568284601F0FEF810B103B0BDE8F08FF3
:1013A0000646206801F0C5F80028F6D005F500676C
:1013B000BB68C3F30D23C4F8FC34206801F0B9F80E
:1013C00010F0020F04D02268536903F00203536146
:1013D000206801F0AEF810F0100F13D02268936966
:1013E00023F010039361D5F8208008F00F09C8F3AB
:1013F0004343022B4BD0062B6FD02268936943F0F6
:1014000010039361206801F094F810F4002F76D156
:10141000206801F08EF810F4802F40F0E080206802
:1014200001F087F80028C0F26381206801F081F89C
:1014300010F4006F09D0BB6813F0010F40F0708109
:101440002268536903F400635361206801F071F866
:1014500010F4805F40F06881206801F06AF810F4B1
:10146000005F40F0B581206801F063F810F0080FCC
:1014700040F0C681206801F05CF810F0800F00F0A9
:10148000D981AB6923F08003AB610126C2E147F645
:10149000F07318EA030FB0D04FEA181B4FEAC903E4
:1014A000019309EBC90A04EB8A0AC8F30A12DAF8B5
:1014B0008C12284600F08CFFCBF30A0BDAF88C3242
:1014C0005B44CAF88C32019B4B4404EB8303D3F892
:1014D0009C325B44CAF89C328FE7082204F2C44174
:1014E000284600F075FFC8F30A1809EBC90204EB9F
:1014F0008202D2F89C324344C2F89C327DE72068D5
:1015000001F01BF88046B14635E005EB4913012296
:10151000C3F8082B49462046FFF7FAFC3CE005EBF0
:1015200049130822C3F8082B49462046FFF772FDED
:1015300035E009EBC90304EB830393F87F32012BF9
:1015400041D005EB49130222C3F8082B1AF0200FF3
:1015500004D005EB49132022C3F8082B1AF4005FCE
:1015600005D005EB49134FF40052C3F8082B09F1DD
:1015700001094FEA5808B8F1000F3FF449AF18F0DD
:10158000010FF4D05FFA89FB5946206800F0E5FFAF
:10159000824610F0010FB8D11AF0080FBFD11AF02F
:1015A000100F04D005EB49131022C3F8082B1AF0D2
:1015B000020FCBD06B6913F0800FBAD07B6843F475
:1015C00080637B60B5E709EBC90304EB830300226A
:1015D00083F87F2259462046FFF78AF9B1E7206851
:1015E00000F0B3FF8046B14625E059462046FFF79C
:1015F00039F91AF0080F04D005EB49130822C3F893
:1016000008291AF0100F04D005EB49131022C3F873
:1016100008291AF0400F04D005EB49134022C3F803
:1016200008291AF0020F40D11AF0800F5BD109F19E
:1016300001094FEA5808B8F1000F3FF4F0AE18F076
:10164000010FF4D05FFA89FB5946206800F08EFF45
:10165000824610F0010FCCD009F00F03012101FAEE
:1016600003F27B6B23EA02037B6305EB4913C3F8A8
:10167000081923698B42B8D109EBC90304EB830332
:10168000996CDA6C0A44DA64B9F1000FADD109EB58
:10169000C90304EB83035B6D002BA6D104F2C442A3
:1016A0000121206800F0BCFF9FE74946284600F072
:1016B0007FFA09EBC90304EB830393F83F30012B56
:1016C00005D005EB49130222C3F80829ACE709EB62
:1016D000C90304EB8303002283F83F2059462046C8
:1016E000FFF70CF9EDE749462046FFF7F0FA9EE7D1
:1016F0007B6823F001037B6094F8F434012B08D05D
:101700002046FFF7EFF82268536903F00043536166
:101710008BE6002184F8F414204600F05CF9F2E72F
:101720002046FFF7C7F88BE67B6823F001037B6058
:101730001021206800F03CFA1AE005EB46134FF642
:101740007F31C3F80819D3F8002922F40012C3F836
:101750000029C3F8081BD3F8002B22F40012C3F8A9
:10176000002BD3F8002B42F00062C3F8002B0136A7
:101770006368B342E1D8FB6943F00113FB61236B5B
:10178000DBB1D7F8843043F00B03C7F884307B6CAF
:1017900043F00B037B64D5F8003823F4FE63C5F8EF
:1017A000003804F2C442217C206800F039FF22682E
:1017B000536903F4805353614EE67B6943F400534D
:1017C00043F02B037B613B6943F00B033B61E2E792
:1017D000206800F014FF206800F008FBE060266835
:1017E00001F064FA0146227B304600F063F920469E
:1017F000FFF749F82268536903F40053536132E656
:101800002046FFF73AF82268536903F00803536152
:1018100030E601366368B3420CD906EBC60304EB2D
:10182000830393F87F32012BF3D1F1B22046FFF707
:1018300091FDEEE7206800F07CFE10F4801F27D1B8
:10184000206800F076FE10F4001F5BD0012328E032
:1018500001366368B3421DD905EB4613D3F800295E
:1018600006EBC60304EB830393F84030012BEFD162
:10187000002AEDDA06EBC60304EB8303012283F8AA
:101880003F2066F07F01C9B22046FFF763FDDFE726
:101890000126DEE72268536903F480135361CFE722
:1018A000013362689A4228D905EB4312D2F8001B33
:1018B00003EBC30204EB820292F88022012AEFD1EB
:1018C0000029EDDA01F48031D4F8FC2402F00102A1
:1018D0009142E5D103EBC30204EB8202012182F8BD
:1018E0007F12AA6942F08002AA616A6912F0800F31
:1018F000D6D17B6843F400737B602268536903F49C
:1019000000135361206800F014FE10F0804F10D1D6
:10191000206800F00EFE10F0040F3FF43EAD236887
:101920005D6815F0040F0DD1226853682B43536096
:1019300033E52046FEF7E8FF2268536903F0804351
:101940005361E5E72046FEF7E5FFEDE790F8BC348C
:10195000012B14D010B50446012380F8BC3411F0DB
:10196000800F06D1006800F04BF9002084F8BC0419
:1019700010BD01F00F01006800F01AF9F5E7022030
:10198000704710B40468606A31B940EA0240A0624E
:1019900000205DF8044B70478C46A36A00EB1340AF
:1019A000002308E003F1400104EB8101496800EBEA
:1019B00011400133DBB20CF1FF318B42F2D340EA2C
:1019C00002400CF13F0104EB81014860E0E703684D
:1019D000596200207047704782B000230193019B39
:1019E00001330193019A0F4B9A4215D80369002BDA
:1019F000F5DA00230193036943F001030361019BBE
:101A000001330193019A074B9A4208D8036913F0F6
:101A1000010FF4D1002000E0032002B07047032042
:101A2000FBE700BF400D030084B010B5044603A8D7
:101A300080E80E00089B012B1FD1A36B23F4803399
:101A4000A363E36823F4840323F04003E360E368C3
:101A500023F44013E3600F9B012B09D02046FFF7CE
:101A6000BBFF069B012B1BD0BDE8104004B07047A4
:101A7000E36843F48013E360F0E7E36843F0400376
:101A8000E3602046FFF7A8FF0C9B23B9A36B43F448
:101A90008033A363E5E7A36B23F48033A363E0E71C
:101AA000A36843F00603A360A36843F02003A36088
:101AB000DAE70000022A0AD00921C26822F4705233
:101AC000C260C36843EA8123C36000207047234B90
:101AD0000B44234A93422FD9224B0B44224A934270
:101AE0002CD9A1F57403A3F51053204A934227D9AA
:101AF000A1F18373A3F5E7431D4A934222D31D4B03
:101B00000B441D4A93421FD91C4B0B441C4A934261
:101B10001CD31C4B0B441C4A934219D3A1F1B7733D
:101B2000A3F55853194A934214D3194B0B44194A3D
:101B3000934211D20721C0E70F21BEE70E21BCE777
:101B40000D21BAE70C21B8E70B21B6E70A21B4E76B
:101B50000921B2E70821B0E70621AEE7405327FF8D
:101B6000FF340C00401E1BFF3F420F007F4F12004E
:101B700020D6130060B6E5FE5FE3160000D3CEFE6C
:101B800040771B00C05BB3FEC09121002075380078
:101B9000E05459FEE09C4100836843F001038360F8
:101BA00000207047836823F00103836000207047A2
:101BB00082B000230193019B01330193019A0F4BE3
:101BC0009A4215D80369002BF5DA002301938901A5
:101BD00041F020010161019B01330193019A074B00
:101BE0009A4208D8036913F0200FF4D1002000E0D6
:101BF000032002B070470320FBE700BF400D030045
:101C000082B000230193019B01330193019A0E4B93
:101C10009A4213D80369002BF5DA002301931023AD
:101C20000361019B01330193019A074B9A4208D843
:101C3000036913F0100FF4D1002000E0032002B07C
:101C400070470320FBE700BF400D0300D0F80038C9
:101C50001943C0F8001800207047000084B02DE937
:101C6000F041044607A880E80E00002306E003F1D7
:101C7000400204EB82020021516001330E2BF6D9A1
:101C8000119F27BBD4F8043843F00203C4F804388A
:101C9000A36B43F40013A363A36B23F40023A36398
:101CA000A36B23F48023A3630023C4F8003E04F550
:101CB0000065D4F80038C4F800380C9B012B14D10F
:101CC000099B6BB900212046FFF7C0FF11E0A36B11
:101CD00023F40013A363A36B43F40023A363E3E79C
:101CE00001212046FFF7B2FF03E003212046FFF762
:101CF000ADFF10212046FFF75BFF804608B14FF093
:101D000001082046FFF77CFF08B14FF001080023CF
:101D10002B616B61EB610AE0C3B94FF00060C2F860
:101D2000000900220A614FF67F328A600133079969
:101D3000994210D904EB431202F51061D2F8000960
:101D40000028E9DB0020C2F80009EAE74FF09040E4
:101D5000C2F80009E5E700230AE0C3B14FF0904C58
:101D6000C2F800CB002202614FF67F32826001335D
:101D7000994211D904EB431202F53060D2F8006B9E
:101D8000002EEADB4FF0000CC2F800CBEAE74FF080
:101D9000006CC2F800CBE5E72B6923F480732B615C
:101DA0000023A3616FF0804363610A9B1BB9A369A1
:101DB00043F01003A361A2690B4B1343A3610D9B76
:101DC0001BB1A36943F00803A361012F04D040466F
:101DD000BDE8F04104B07047A36943F0804343F08D
:101DE0000403A361F3E700BF00383C80D0F8083853
:101DF00013F0060307D0022B07D0062B01D00F20CB
:101E0000704702207047002070470220704710B5CD
:101E100091F800C04B78012B23D000F5006ED0F86C
:101E20001C380CF00F040122A24043EA0243C0F820
:101E30001C3800EB4C10D0F8003B13F4004F0ED1CF
:101E4000D0F8003BCA68C2F30A02097942EA81422B
:101E5000134343F0805343F40043C0F8003B002099
:101E600010BDD0F81C280CF00F0E03FA0EF39BB235
:101E70001343C0F81C3800EB4C10D0F8003913F4B1
:101E8000004FECD1D0F80039CA68C2F30A020979D0
:101E900042EA814242EA8C5C43EA0C0343F08053FD
:101EA00043F40043C0F80039D9E7000030B40B78A0
:101EB0004A78012A26D000EB4313D3F8002B002ADE
:101EC00052DBD0F83C480A7802F00F024FF0010CC8
:101ED0000CFA02F224EA0242C0F83C28D0F81C288E
:101EE000097801F00F010CFA01FC22EA0C42C0F85B
:101EF0001C28D3F8001B234A0A40C3F8002B0020FB
:101F000030BC704700EB4313D3F80029002A1EDBD6
:101F1000D0F83C580A7802F00F02012404FA02F2C9
:101F200092B225EA0202C0F83C28D0F81C280978B1
:101F300001F00F018C40A4B222EA0404C0F81C484E
:101F4000D3F80019104A0A40C3F80029D7E7D3F89C
:101F5000002942F00062C3F80029D3F8002942F0BA
:101F60008042C3F80029D3E7D3F8002B42F0006287
:101F7000C3F8002BD3F8002B42F08042C3F8002BAB
:101F80009FE700BF0078F3EF007833EC70B40B7874
:101F90004C78012C29D000EB431000F530631C690C
:101FA000E40CE4041C611C6924F0FF5424F4C01404
:101FB0001C618C690CB1CC688C61CC68CC611C69EB
:101FC00044F400241C611C69CD69C5F3120C44EA79
:101FD0000C041C61012A66D0D0F8003B43F0044396
:101FE000C0F8003B002070BC70478C696CBB00EBF4
:101FF0004314D4F8105925F0FF5525F4C015C4F842
:102000001059D4F8105945F40025C4F81059D4F8E3
:102010001059ED0CED04C4F81059012A34D000EB2E
:102020004313D3F8002942F00442C3F800298B6916
:10203000002BD7D0D0F834380A7802F00F010122F3
:102040008A401343C0F83438CCE700EB431404F55E
:1020500010642569ED0CED042561256925F0FF5517
:1020600025F4C0152561CD688E69AE4200D98D6119
:10207000256945F40025256125698E69C6F3120C92
:1020800045EA0C052561C8E74A691AB100EB43111E
:10209000C1F8142900EB4310D0F8002942F00442A3
:1020A000C0F800299EE70A69002A95D05A6193E793
:1020B00010B483B0024600230193487801280BD066
:1020C0000B7802EB4313D3F8000B00282DDB002024
:1020D00003B05DF8044B70470B7802EB4313D3F861
:1020E0000049002C01DB0020F2E7D3F8004944F05E
:1020F0000064C3F800490B7802EB4313D3F800499E
:1021000044F08044C3F80049019B01330193019CD2
:1021100042F210739C42DBD80B7802EB4313D3F8E6
:102120000039002BF0DB0020D2E7D3F8000B40F0A1
:102130000060C3F8000B0B7802EB4313D3F8000BDD
:1021400040F08040C3F8000B019B013301930198DC
:1021500042F21073984208D80B7802EB4313D3F87D
:10216000003B002BF0DB0020B2E70120B0E710B508
:102170009DF8084084B903334FEA930E4FF0000CEA
:1021800008E000EB023303F5805351F8044B1C6068
:102190000CF1010CF445F4D3002010BDF0B583B070
:1021A0000B784C78012C33D000EB431303F5306CE3
:1021B000DCF81040E40CE404CCF81040DCF81040EB
:1021C00024F0FF5424F4C014CCF810408C69002C87
:1021D00040F0C780DCF81040CD68C5F312052C43F1
:1021E000CCF81040DCF8104044F40024CCF8104047
:1021F000012A00F0D0800A79012A00F0D380D3F8B8
:10220000002B42F00442C3F8002B002003B0F0BDC5
:102210008C6984BB00EB4314D4F8105925F0FF55AA
:1022200025F4C015C4F81059D4F8105945F4002508
:10223000C4F81059D4F81059ED0CED04C4F8105935
:10224000012A4CD000EB4313D3F8004944F0044476
:10225000C3F800490C79012C6AD08B69002BD4D0CB
:10226000D0F834380A7802F00F0101228A40134373
:10227000C0F83438C9E700EB4314D4F81059ED0C1A
:10228000ED04C4F81059D4F8105925F0FF5525F481
:10229000C015C4F81059D4F810698D69CF683D4451
:1022A000013DB5FBF7F5494F07EAC5453543C4F88D
:1022B0001059D4F810598E69C6F312063543C4F884
:1022C000105904F510640D79012DB9D1256925F057
:1022D000C0452561256945F000552561B0E74A698B
:1022E0001AB100EB4314C4F814290A79012A08D062
:1022F00000EB4313D3F8002942F00442C3F800294D
:1023000083E7D0F8082812F4807F08D100EB43114E
:10231000D1F8002942F00052C1F80029E8E700EBAB
:102320004311D1F8002942F08052C1F80029DFE7BB
:10233000D0F8084814F4807F0CD1D3F8004944F059
:102340000054C3F8004900920B8B0A780969FFF723
:102350000EFF5AE7D3F8004944F08054C3F800490F
:10236000F1E7CD682C44013CB4FBF5F4A4B204FBC6
:1023700005F5CD61DCF81050144E06EAC4442C4338
:10238000CCF81040DCF81040CD69C5F312052C43A1
:10239000CCF810402CE70A69002A3FF42CAFCCF8A7
:1023A000142028E7D0F8082812F4807F06D1D3F84B
:1023B000002B42F00052C3F8002B20E7D3F8002B8B
:1023C00042F08052C3F8002B19E700BF0000F81F4D
:1023D00000B583B0844608464FEA920E02F003022D
:1023E000002305E00CF58051096840F8041B013317
:1023F0007345F7D39AB10CF5805CDCF8003001939B
:102400004FF0000C5FFA8CF3D900019BCB4000F831
:10241000013B0CF1010C013A92B2002AF2D103B057
:102420005DF804FB0B784A78012A14D000EB4310C6
:10243000D0F8002B002A06DB2BB1D0F8003B23F0AC
:102440008043C0F8003BD0F8003B43F40013C0F8D1
:10245000003B0020704700EB4310D0F80029002A11
:1024600006DB2BB1D0F8003923F08043C0F80039E7
:10247000D0F8003943F40013C0F80039E9E70B78CD
:102480004A78012A0ED000EB4310D0F8003B23F429
:102490000013C0F8003B0B79023BDBB2012B15D9CE
:1024A0000020704700EB4310D0F8003923F40013EC
:1024B000C0F800390B79023BDBB2012BF0D8D0F821
:1024C000003943F08053C0F80039E9E7D0F8003B09
:1024D00043F08053C0F8003BE2E7D0F8003823F423
:1024E000FE63C0F80038D0F80038090101F4FE613D
:1024F0001943C0F8001800207047D0F8003E23F0C0
:102500000303C0F8003ED0F8043823F00203C0F8FB
:10251000043800207047D0F8003E23F00303C0F8D1
:10252000003ED0F8043843F00203C0F8043800201D
:1025300070474269806910407047D0F8183800F53C
:102540000060C0691840000C7047D0F8183800F5DA
:102550000060C069184080B2704700EB4111D1F8AB
:10256000082B00F5006040691040704710B4D0F8A7
:102570001048D0F8343801F00F02D340DB01DBB251
:10258000234300EB411000F51060806818405DF8AF
:10259000044B7047406900F00100704738B50546AC
:1025A000C36823F0C043C360012913D019BBC368BB
:1025B00043F08043C3600024012000F04DFD01344E
:1025C0002846FFF7E7FF08B1312CF5D9322C14D09B
:1025D000002038BDC36843F00053C36000240120CD
:1025E00000F03AFD01342846FFF7D4FF0128EDD072
:1025F000312CF4D9EAE70120EBE70120E9E7D0F834
:10260000003923F4FF6323F00703C0F80039D0F842
:10261000043843F48073C0F8043800207047000089
:1026200010B4046C154B9C4203D9D0F8003B002B2E
:1026300016DB0024C0F8104BD0F8104B44F40024F3
:10264000C0F8104BD0F8104B44F01804C0F8104BF1
:10265000D0F8104B44F0C044C0F8104B012903D00F
:1026600000205DF8044B7047C0F8142BD0F8003BF5
:1026700043F08023C0F8003BF2E700BF0A30544F1C
:10268000002800F0E08170B582B00446036813F0C2
:10269000010F3BD09F4B9B6803F00C03042B2CD005
:1026A0009C4B9B6803F00C03082B21D06368B3F5A7
:1026B000803F4FD0B3F5A02F52D0964B1A6822F42A
:1026C00080321A601A6822F480221A606368002B34
:1026D00050D000F0BBFC05468E4B1B6813F4003F46
:1026E00014D100F0B3FC401B6428F5D90320B1E1FC
:1026F000884B5B6813F4800FD8D0864B1B6813F4AB
:10270000003F03D06368002B00F09F81236813F023
:10271000020F54D07F4B9B6813F00C0F3ED07D4BC3
:102720009B6803F00C03082B33D0E368002B68D0C0
:10273000794B01221A6000F089FC0546754B1B6835
:1027400013F0020F54D100F081FC401B0228F5D990
:1027500003207FE16F4A136843F480331360B5E7C9
:102760006C4B1A6842F480221A601A6842F4803274
:102770001A60ABE700F06AFC0546664B1B6813F471
:10278000003FC3D000F062FC401B6428F5D9032051
:1027900060E1604B5B6813F4800FC6D15D4B1B6832
:1027A00013F0020F03D0E368012B40F05081594A27
:1027B000136823F0F803216943EAC1031360236817
:1027C00013F0080F42D063696BB3534B0122C3F877
:1027D000802E00F03BFC05464E4B5B6F13F0020F62
:1027E00034D100F033FC401B0228F5D9032031E13D
:1027F000484A136823F0F803216943EAC1031360D0
:10280000DDE7454B00221A6000F020FC0546414BF5
:102810001B6813F0020FD2D000F018FC401B0228F6
:10282000F5D9032016E13C4B0022C3F8802E00F0BE
:102830000DFC0546374B5B6F13F0020F06D000F01E
:1028400005FC401B0228F5D9032003E1236813F09F
:10285000040F77D02F4B1B6C13F0805F33D1002314
:1028600001932C4B1A6C42F080521A641B6C03F0DB
:1028700080530193019B0125284B1B6813F4807F33
:1028800023D0A368012B34D0052B38D0214B1A6FED
:1028900022F001021A671A6F22F004021A67A36875
:1028A000002B3DD000F0D2FB06461A4B1B6F13F0F5
:1028B000020F46D100F0CAFB801B41F288339842D8
:1028C000F3D90320C6E00025D6E7144A136843F481
:1028D0008073136000F0BAFB0646104B1B6813F4BC
:1028E000807FCED100F0B2FB801B0228F5D90320F7
:1028F000B0E0084A136F43F001031367CFE7054BBD
:102900001A6F42F004021A671A6F42F001021A6746
:10291000C5E700BF00380240000047420070004099
:1029200000F094FB0646524B1B6F13F0020F08D0C9
:1029300000F08CFB801B41F288339842F3D90320CE
:1029400088E0EDB9A369002B00F08380484A9268C3
:1029500002F00C02082A51D0022B17D0454B00225E
:102960001A6600F073FB0446414B1B6813F0007FAE
:1029700042D000F06BFB001B0228F5D9032069E070
:102980003B4A136C23F080531364DBE7394B00227E
:102990001A6600F05BFB0546354B1B6813F0007FA1
:1029A00006D000F053FB401B0228F5D9032051E06C
:1029B000E369226A1343626A43EA8213A26A5208F5
:1029C000013A43EA0243E26A43EA0263284A536057
:1029D000284B01221A6600F039FB0446244B1B6881
:1029E00013F0007F06D100F031FB001B0228F5D95F
:1029F00003202FE000202DE000202BE0012B2BD026
:102A00001B4B5B6803F48001E269914226D103F01D
:102A10003F02216A8A4223D1616A47F6C0721A4096
:102A2000B2EB811F1ED103F44031A26A5208013A71
:102A3000B1EB024F18D103F07063E26AB3EB026F9F
:102A400014D1002006E001207047012002E001209F
:102A500000E0002002B070BD0120FBE70120F9E793
:102A60000120F7E70120F5E70120F3E70120F1E776
:102A7000003802400000474208B5314B9B6803F024
:102A80000C03042B57D0082B57D12D4B5A6802F05A
:102A90003F025B6813F4800F2AD0294B5968C1F3B9
:102AA000881C4FEA4C11B1EB0C006EEB0E0E4FEA96
:102AB0008E1343EA90638101091A63EB0E03DB0076
:102AC00043EA5173C90011EB0C0C43F100035902A6
:102AD00000234FEA4C2041EADC51FDF7C9FB184BBB
:102AE0005B68C3F3014301335B00B0FBF3F025E007
:102AF000134B5968C1F3881C4FEA4C11B1EB0C0021
:102B00006EEB0E0E4FEA8E1343EA90638101091AB1
:102B100063EB0E03DB0043EA5173C90011EB0C0CAD
:102B200043F10003990200234FEA8C2041EA9C51B3
:102B3000FDF79EFBD3E7034800E0034808BD00BF54
:102B40000038024000127A000024F400002800F04F
:102B50009B8070B50D4604464F4B1B6803F007037E
:102B60008B4208D2CBB24C4A1370136803F00703B0
:102B70008B4240F08B80236813F0020F17D013F0C4
:102B8000040F04D0454A936843F4E05393602368EC
:102B900013F0080F04D0414A936843F460439360F4
:102BA0003E4A936823F0F003A1680B4393602368C7
:102BB00013F0010F32D06368012B21D09A1E012A35
:102BC00025D9364A126812F0020F61D033498A685B
:102BD00022F0030213438B6000F038FA06462F4BB5
:102BE0009B6803F00C036268B3EB820F16D000F011
:102BF0002DFA801B41F288339842F0D9032042E03D
:102C0000264A126812F4003FE0D101203BE0234A3B
:102C1000126812F0007FD9D1012034E01E4B1B68EE
:102C200003F00703AB4207D9EAB21B4B1A701B68CB
:102C300003F00703AB422DD1236813F0040F06D035
:102C4000164A936823F4E053E1680B4393602368CA
:102C500013F0080F07D0114A936823F460432169E9
:102C600043EAC1039360FFF707FF0C4B9B68C3F374
:102C700003130B4AD35CD8400A4B18600A4B186800
:102C800000F098F9002070BD012070470120FAE79C
:102C90000120F8E70120F6E7003C0240003802403E
:102CA000B46C00083C01002038010020014B18687A
:102CB000704700BF3C01002008B5FFF7F7FF044B49
:102CC0009B68C3F38223034AD35CD84008BD00BF8E
:102CD00000380240C46C000808B5FFF7E7FF044B5A
:102CE0009B68C3F34233034AD35CD84008BD00BF9E
:102CF00000380240C46C000800230F2B00F2E4806F
:102D000070B582B060E085685E000324B44025EAB7
:102D10000405CC68B4402C438460456825EA02056C
:102D20004C68C4F300129A402A4342605AE0DC081F
:102D3000083450F8246003F0070295000F22AA40DF
:102D400026EA020E0A69AA4042EA0E0240F824204E
:102D50005CE0072200E0002202FA0EF22A4302346D
:102D60005A4D45F824205A4A94686FEA0C0224EA26
:102D70000C054E6816F4801F01D04CEA0405544C33
:102D8000A560E46802EA04054E6816F4001F01D04D
:102D90004CEA04054E4CE560646802EA04054E689E
:102DA00016F4003F01D04CEA0405494C65602468E4
:102DB00022404D6815F4803F01D04CEA0402444C97
:102DC000226001330F2B7DD801229A400C6804EA5F
:102DD000020C32EA0404F4D14C6804F00304013C10
:102DE000012C90D94A6802F00302032A09D0C46872
:102DF0005D000322AA4024EA02048A68AA40224312
:102E0000C2604A6802F00302022A90D004684FEAC6
:102E1000430E032202FA0EF224EA02044A6802F088
:102E2000030202FA0EF2224302604A6812F4403FA3
:102E3000C7D000220192274A546C44F48044546461
:102E4000526C02F480420192019A9C08A51C1F4A10
:102E500052F8255003F003024FEA820E0F2202FAC5
:102E60000EF225EA02051C4A90423FF474AF02F5C7
:102E7000806290421AD002F58062904218D002F52A
:102E80008062904216D002F58062904214D002F522
:102E90008062904212D002F58062904210D002F51A
:102EA000806290423FF455AF082255E7012253E774
:102EB000022251E703224FE704224DE705224BE7A8
:102EC000062249E702B070BD704700BF00380140DC
:102ED000003C01400038024000000240074AD3682D
:102EE00023F4E0631B041B0C000200F4E0600343C6
:102EF00043F0BF6343F40033D360704700ED00E05C
:102F000000B5194BDB68C3F30223C3F1070CBCF116
:102F1000040F28BF4FF0040C03F1040EBEF1060F9E
:102F200018D9033B4FF0FF3E0EFA0CFC21EA0C01CE
:102F300099400EFA03F322EA0303194300280BDB3E
:102F40000901C9B200F1604000F5614080F800134A
:102F50005DF804FB0023E5E700F00F000901C9B2AA
:102F6000024B1954F4E700BF00ED00E014ED00E05F
:102F7000002807DB00F01F02400901239340024AAA
:102F800042F82030704700BF00E100E00138B0F1A6
:102F9000807F0BD24FF0E0235861054AF02182F880
:102FA00023100020986107221A61704701207047A2
:102FB00000ED00E010B504460E4B18784FF47A731C
:102FC000B3FBF0F30C4A1068B0FBF3F0FFF7DEFF41
:102FD00068B90F2C01D901200AE0002221464FF0E8
:102FE000FF30FFF78DFF054B1C60002000E0012043
:102FF00010BD00BF340100203C010020380100203A
:1030000008B50B4B1A6842F400721A601A6842F451
:1030100080621A601A6842F480721A600320FFF717
:103020005DFF0F20FFF7C6FFFDF778FD002008BD0C
:10303000003C0240034A1168034B1B780B441360A9
:10304000704700BFAC1D002034010020014B186800
:10305000704700BFAC1D002038B50446FFF7F6FFEF
:103060000546B4F1FF3F02D0044B1B781C44FFF728
:10307000EDFF401BA042FAD338BD00BF3401002051
:1030800038B504460268136923F44053C1680B4302
:10309000136183680269134342691343C2691A4387
:1030A0000168CB6823F4164323F00C031343CB6071
:1030B0000268536923F4407381690B4353610368C9
:1030C000314A934206D002F58062934202D0FFF764
:1030D000F3FD01E0FFF700FEE369B3F5004F29D0EF
:1030E0000021031849411B1841F10001C90041EAC0
:1030F0005371DB00181863684FEA83024FEA937339
:1031000041F10001FDF7B4F8204DA5FB0032510953
:10311000642303FB11031B013233A5FB03235B096B
:1031200003F0F00202EB011203F00F0321681344D5
:103130008B6038BD0023021843EB0301121841F1E4
:103140000001C90041EA5271D200101841F100019A
:10315000626892185B41FDF78BF80C4DA5FB0032BD
:103160005109642303FB1103DB003233A5FB032366
:103170005B095A0002F4F87202EB011203F0070334
:10318000216813448B60D4E7001001401F85EB5188
:103190002DE9F84305460F4616469946DDF820808E
:1031A0002C68246837EA04030CBF4FF0010C4FF081
:1031B000000CB4452DD1B8F1FF3FF1D0B8F1000FAC
:1031C00005D0FFF743FFA0EB09004045E8D92A6886
:1031D00002F10C0353E8003F23F4D0730C3242E8B1
:1031E00000310029F3D12A6802F1140353E8003FAB
:1031F00023F00103143242E800310029F3D12023E7
:1032000085F83D3085F83E30002385F83C300320BA
:1032100000E00020BDE8F88358B310B5044690F8EC
:103220003D300BB3242384F83D302268D36823F467
:103230000053D3602046FFF723FF2268136923F46D
:10324000904313612268536923F02A035361226873
:10325000D36843F40053D36000202064202384F813
:103260003D3084F83E3010BD80F83C30FDF72CFA3C
:10327000D8E7012070472DE9F04182B01E4690F852
:103280003D30DBB2202B54D104460D469046002938
:1032900053D0002A53D090F83C30012B51D0012359
:1032A00080F83C3000230364212380F83D30FFF791
:1032B000CDFE0746A4F82480A4F82680A368B3F5C1
:1032C000805F05D04FF00008002384F83C3012E006
:1032D000236913B14FF00008F6E7A8460025F3E78D
:1032E00038F8023B2268C3F308035360E28C92B2C1
:1032F000013A92B2E284E38C9BB273B100963B46F2
:10330000002280212046FFF743FFE0B9002DE7D0DF
:1033100015F8012B23685A60E8E700963B46002227
:1033200040212046FFF734FF78B9202384F83D3050
:1033300000E0022002B0BDE8F0810120FAE70120A0
:10334000F8E70220F6E70320F4E70320F2E70000A5
:10335000034AD2F8883043F47003C2F888307047CB
:1033600000ED00E050B308B58446002315E003F1FA
:10337000AE0E00204CF82E0003F1B60E0CEB8E0EB4
:10338000CEF80400C3EBC30E0CEBCE0ECEF8080350
:10339000CCF8FC02CCF8F8020133032BE7D9002368
:1033A000CCF8F43209B1CCF8B41201238CF89C3279
:1033B0008CF800206046FDF7B3FA08BD0320704783
:1033C00030B583B004460020ADF80600D4F8F8020A
:1033D00003281CD8D4F8FC52032D18D809B300F1E7
:1033E000AE0C44F82C10C0EBC00004EBC000C0F8D9
:1033F000243300232046FDF755FCD4F8F83201337E
:10340000C4F8F832D4F8FC320133C4F8FC32064B6D
:10341000DB6A0DF106009847C4F8F402002003B0FF
:1034200030BD0320FBE700BF1400002008B50022D8
:10343000C0F8F822FDF7D9FA08BDF8B505460E46E2
:103440000024274600E00134032C17D8C4EBC40342
:1034500005EBC303D3F80833012BF4D104F1AE0319
:1034600055F82330002BEED0C5F8F8421B683146E2
:10347000284698470028E6D00327E4E73846F8BDF9
:10348000F8B505460E460024274600E00134032C1B
:1034900017D8C4EBC40305EBC303D3F80833012BDF
:1034A000F4D104F1AE0355F82330002BEED0C5F86B
:1034B000F8425B683146284698470028E6D0032743
:1034C000E4E73846F8BD38B5044600F2AA25284698
:1034D00000F06CFA0123C4F89432B4F8B032C4F8A6
:1034E000983294F8AA1201F01F03012B0DD0022B81
:1034F00010D02BB101F080012046FDF799FA03E0CE
:103500002946204600F060FC38BD2946204600F0E0
:10351000B1FCF9E72946204600F0EFFCF4E7F8B5E6
:103520000546012380F89C320026C0F8946246606C
:10353000C0F8A46280F8A062344600E00134032C95
:1035400019D8C4EBC40305EBC303D3F80833012B2C
:10355000F4D104F1AE0355F82330002BEED0C5F8BA
:10356000F8425B68002BE9D0297928469847002863
:10357000E4D00326E2E74023002211462846FDF767
:103580003CFA0127A5F864714024C5F86041234640
:10359000002280212846FDF730FAAF842C623046A5
:1035A000F8BD01740020704790F89C32DBB280F8BF
:1035B0009D32042380F89C320020704790F89C32A2
:1035C000DBB2042B01D00020704790F89D32DBB2B3
:1035D00080F89C32F7E738B590F89C32DBB2032BC9
:1035E0001BD0002038BD0134032CFAD8C4EBC4032F
:1035F00005EBC303D3F80833012BF4D104F1AE0378
:1036000055F82330002BEED0DA69002AEBD0C5F84C
:10361000F842DB6928469847E5E705460024E3E7DA
:1036200008B5D0F8F832AE3350F823205AB190F8EC
:103630009C32DBB2032B01D0002008BD136A23B1FA
:1036400098470020F9E70320F7E70020F5E708B5E1
:10365000D0F8F832AE3350F823205AB190F89C32AB
:10366000DBB2032B01D0002008BD536A23B1984779
:103670000020F9E70320F7E70020F5E70020704776
:1036800070B50546012380F89C320024264600E0F0
:103690000134032C17D8C4EBC40305EBC303D3F8E0
:1036A0000833012BF4D104F1AE0355F82330002B7D
:1036B000EED0C5F8F8425B6829792846984700287B
:1036C000E6D00326E4E7304670BD00231CE00CF191
:1036D000010CC3EBC30200EBC202D2F828236245FF
:1036E00011D9C3EBC30200EBC202624492F82C234F
:1036F0008A42ECD103F1AE0250F822209268002AEF
:10370000E5D0D8B270470133032B0AD8C3EBC3020C
:1037100000EBC202D2F80823012AF4D14FF0000CCA
:10372000D7E7FF20704700231CE00CF1010CC3EB2E
:10373000C30200EBC202D2F80C23624511D9C3EBDD
:10374000C3020CEB4202C43210F822208A42ECD1B0
:1037500003F1AE0250F822209268002AE5D0D8B2D8
:1037600070470133032B0AD8C3EBC30200EBC2023C
:10377000D2F80823012AF4D14FF0000CD7E7FF203C
:10378000704738B504460D46002943D11346D0F89A
:103790009422032A01D0084638BDD0F85C11D0F835
:1037A0006021914212D890F8AA3203F01F03012B36
:1037B00017D0022B1CD0284694F89C32DBB2032B86
:1037C0001BD0204600F0F8FC2846E5E7891AC0F82F
:1037D0005C118A4228BF0A46194600F0E5FC2846DB
:1037E000DAE790F8AE12FFF770FF0328E9D8E3E7B5
:1037F00090F8AE12FFF797FFF7E700F1AE0354F829
:1038000023301A69002ADCD0C4F8F8021B6920466C
:103810009847D6E701F07F01FFF785FF032813D80B
:1038200094F89C32DBB2032B01D00020B4E700F106
:10383000AE0354F823309A6942B1C4F8F8029B6988
:10384000294620469847A7E70020A5E70020A3E7E0
:1038500038B504460D4600294BD11346D0F89422C2
:10386000022A07D094F8A00218B1002384F8A032ED
:10387000284638BDC269016A8A420ED88A4218D0E9
:1038800094F89C32DBB2032B27D080212046FDF731
:10389000CFF8204600F09BFCE4E7521AC2611946BB
:1038A00000F06BFC00231A4619462046FDF7E0F8AD
:1038B000D8E783699942E3D8D0F898229342DFD2BF
:1038C0000022114600F059FC0021C4F898120B4662
:1038D0000A462046FDF7CCF8C4E7D4F8B832DA68D7
:1038E000002AD2D00022C4F8F822DB68204698478C
:1038F000CBE741F08001FFF716FF032813D894F8B7
:103900009C32DBB2032B01D00020B2E700F1AE0302
:1039100054F823305A6942B1C4F8F8025B69294669
:1039200020469847A5E70020A3E70020A1E730B58F
:103930008646002301E00133DBB2DEF8F842C4EB37
:10394000C40C0EEBCC0CDCF80C03834222D2C4EB8B
:10395000C40C03EB4C0C0CF1C40C1EF82C0000F052
:10396000800C8C45E7D1C4EBC40C03EB4C0C0CF180
:10397000C40C0EEB8C0C9CF801C09445DBD1C4EB5D
:10398000C40403EB4405C4350EEB8505EC78002C2C
:10399000D1D000E0FF2030BD0346002002E001301E
:1039A000C0B201331A78002AF9D170470B7803703E
:1039B0004B7843708B78CA7843EA022343800B79B3
:1039C0004A7943EA022383808B79CA7943EA022346
:1039D000C380704710B504468021FDF729F8002107
:1039E0002046FDF725F810BD30B583B005460C46DE
:1039F0000023ADF806304988784802F0A9F96288BA
:103A0000130A013B062B00F2DB80DFE813F007000E
:103A100022004800D900D900A900C000D5F8B4326E
:103A20001B680DF10601287C9847E288002A00F007
:103A3000D180BDF80630002B00F0C7809A4228BF25
:103A40001A46ADF806200146284600F089FB03B06F
:103A500030BD2B7C8BB995F8FC323BB1604B9B6A37
:103A60000DF10600984702234370DEE7D5F8B8321F
:103A70009B6A0DF106009847F5E795F8FC323BB1DB
:103A8000574BDB6A0DF10600984702234370CCE7E1
:103A9000D5F8B832DB6A0DF106009847F5E7D2B2E7
:103AA000052A58D8DFE802F003111F2D3B49D5F84D
:103AB000B4325B6823B10DF10601287C9847B4E766
:103AC00021462846FFF786FFC1E7D5F8B4329B6848
:103AD00023B10DF10601287C9847A6E72146284628
:103AE000FFF778FFB3E7D5F8B432DB6823B10DF107
:103AF0000601287C984798E721462846FFF76AFF89
:103B0000A5E7D5F8B4321B6923B10DF10601287C75
:103B100098478AE721462846FFF75CFF97E7D5F8E4
:103B2000B4325B6923B10DF10601287C98477CE72C
:103B300021462846FFF74EFF89E7D5F8B4329B6946
:103B400023B10DF10601287C98476EE721462846EF
:103B5000FFF740FF7BE721462846FFF73BFF76E76C
:103B60002B7C7BB995F8FC322BB11D4B5B6B0DF1B7
:103B70000600984759E7D5F8B8325B6B0DF106009F
:103B8000984752E721462846FFF724FF5FE72B7C42
:103B90008BB995F8FC323BB1114B1B6B0DF1060054
:103BA00098470723437040E7D5F8B8321B6B0DF1F7
:103BB00006009847F5E721462846FFF70BFF46E742
:103BC00021462846FFF706FF41E721462846FFF732
:103BD00001FF3CE7284600F0EFFA38E7CC6C00081C
:103BE0001400002038B504468B88FBB9CB88EBB9AC
:103BF0004B887F2B1AD803F07F0590F89C32DBB2FC
:103C0000032B0CD080F89E522946FCF721FF20465A
:103C100000F0D2FA35B1022384F89C3209E0FFF7B4
:103C2000D9FE06E0012384F89C3202E02046FFF72B
:103C3000D1FE38BD70B504460E468D782F4B1D70F1
:103C4000012D10D890F89C32DBB2022B0FD0032B41
:103C500026D0FFF7BFFE294B19782046FFF710FC4E
:103C60000325284670BDFFF7B5FE0325F9E7A5B18A
:103C700045602946FFF7E1FB054638B1314620464D
:103C8000FFF7A8FE022384F89C32EAE7204600F002
:103C900093FA032384F89C32E3E700F08DFAE0E71F
:103CA000CDB141688D4225D0C9B2FFF7E9FB134B76
:103CB000197861602046FFF7C0FB0546B0B1314678
:103CC0002046FFF787FE21792046FFF7D9FB022324
:103CD00084F89C32C5E7022380F89C32456029466F
:103CE000FFF7CEFB204600F067FABAE7204600F067
:103CF00063FAB6E700F060FA0025B2E7B01D0020D5
:103D000008B5CB88012B0BD190F89C32DBB2022B8B
:103D100009D9032B09D10122011D00F021FA01E08C
:103D2000FFF758FE08BD5BB213B9FFF753FEF9E782
:103D30000146002341F8083F012200F011FAF1E7A3
:103D400008B590F89C32013B022B12D8CB88022B8D
:103D50000CD10123C360D0F8A4320BB10323C3609C
:103D6000022200F10C0100F0FBF908BDFFF732FE62
:103D7000FBE7FFF72FFEF8E708B54B88012B04D0CF
:103D8000022B07D0FFF726FE08BDC0F8A43200F0D2
:103D900013FAF9E78B881B0A80F8A03200F00CFABE
:103DA000F2E708B590F89C32013B022B09D84B880A
:103DB000012B00D008BD0023C0F8A43200F0FCF9AC
:103DC000F8E7FFF707FEF5E7F8B506460D460C786D
:103DD00004F06004202C06D0402C04D07CB1FFF706
:103DE000F9FD002409E0D6F8F832AE3356F8233056
:103DF0009B6829463046984704462046F8BD4978D6
:103E00001B4801F0A5FF6F78092F2BD8DFE807F0DA
:103E10001A252A202A0A052A150F29463046FFF7B7
:103E2000E3FDEAE729463046FFF7DCFEE5E72946F1
:103E30003046FFF7FFFE0446DFE729463046FFF72E
:103E40005FFFDAE729463046FFF77AFF3C46D4E7C2
:103E500029463046FFF790FFCFE729463046FFF767
:103E6000A0FFCAE729463046FFF7B4FDC5E700BF0B
:103E7000D86C000870B505460C460B7803F060035B
:103E8000202B07D0402B05D023B1FFF7A3FD002640
:103E9000304670BD95F89C32013B022B27D8217922
:103EA00003291ED82846FFF710FC03280DD800F17F
:103EB000AE0355F823309A688AB1C5F8F8029B68BA
:103EC000214628469847064600E00326E388002B53
:103ED000DED1002EDCD1284600F06EF9D8E70326AB
:103EE000F4E721462846FFF775FD0026D0E7214676
:103EF0002846FFF76FFD0026CAE72DE9F041064688
:103F00000D468B88DFB20C7804F06004202C08D0BA
:103F1000402C06D0D4B1FFF75DFD00242046BDE85B
:103F2000F08139463046FFF7FEFB032800F2F780A8
:103F3000C6F8F802AE3056F820309B68002B00F02F
:103F4000F0802946304698470446E7E791F801801B
:103F5000B8F1010F31D0B8F1030F05D0B8F1000F5F
:103F600066D0FFF737FDD9E790F89C32DBB2022B21
:103F700004D0032B12D0FFF72DFDCFE70FB1802F18
:103F800004D129463046FFF725FDC7E73946FCF73F
:103F90004FFD80213046FCF74BFDBFE74B8823B92E
:103FA0001FB1802F01D0CB881BB1304600F004F93F
:103FB000B4E73946FCF73CFDF7E790F89C32DBB2FA
:103FC000022B04D0032B12D0FFF704FDA6E70FB19C
:103FD000802F04D129463046FFF7FCFC9EE7394686
:103FE000FCF726FD80213046FCF722FD96E74B8842
:103FF000002B93D117F07F0F16D1304600F0DCF87C
:1040000039463046FFF78FFB032887D8C6F8F802F9
:10401000AE3056F820309B68002B3FF47FAF294626
:1040200030469847044679E73946FCF709FDE4E74E
:1040300090F89C22D2B2022A05D0032A27D0FFF79B
:10404000C9FC44466AE70FB1802F13D113F0800FEB
:1040500014D107F07F0707EB8707B90001F5A871B6
:104060003144043100230B600222304600F078F81E
:10407000444653E7FFF7AEFC44464FE707F07F079F
:1040800007EB8707B900103131440431EAE75BB22E
:10409000002B1FDB07F00F0202EB820200EB820213
:1040A000B2F864211AB3002B25DB07F07F0303EB82
:1040B00083039C0004F5A874344404340FB1802FAA
:1040C00022D10023236002222146304600F048F826
:1040D000444623E707F00F0202EB820200EB820264
:1040E000928C002ADFD1FFF775FC444616E7FFF7F4
:1040F00071FC444612E707F07F0303EB83039C0047
:10410000103434440434D9E739463046FCF746FCD1
:1041100010B101232360D6E700232360D3E70024F6
:10412000FCE60024FAE6D0B170B50D46164604460A
:10413000FFF732FC431C5B009BB233802B700323E0
:104140006B70022307E0EA5401345A1CD2B20021FA
:10415000A9540233DBB22278002AF4D170BD704733
:1041600008B513460222C0F894228361C3610A464F
:104170000021FCF775FC002008BD08B513460A466F
:104180000021FCF76DFC002008BD08B51346032292
:10419000C0F89422C0F85831C0F85C310A460021BA
:1041A000FCF766FC002008BD08B513460A4600214E
:1041B000FCF75EFC002008BD08B50422C0F894227C
:1041C00000231A461946FCF74BFC002008BD08B531
:1041D0000522C0F8942200231A461946FCF748FC31
:1041E000002008BD10B5D0F8F83203F1B20200EBA0
:1041F0008202546894B1B63300EB830043687BB10C
:1042000094F80002FF280DD09B6894F80122214603
:104210009847FF2384F80032002010BD0320FCE7FC
:104220000020FAE70020F8E738B5D0F8F832B233CA
:1042300000EB83035D6895B10446FCF7C6FBC5F847
:104240000C02D4F8F832B63304EB83046368DB68FD
:1042500005F50371D5F804029847002038BD032006
:10426000FCE738B5D0F8EC52D0F8F832B23300EBB6
:1042700083035C6884B301F00F0303EB830200EB5C
:10428000820292694AB103EBC30C05EB8C05AD6C5D
:10429000B2FBF5FC05FB1C2292B10023C4F81432DA
:1042A000D0F8F832B63300EB830043681B69ABB13A
:1042B0000A4604F50471D4F808029847002038BD76
:1042C00003EB830300EB830300249C612346224617
:1042D000FCF7C6FB2046F2E70320F0E70020EEE7FC
:1042E000F0B583B00D46D0F8F81201F1B20300EB3F
:1042F00083035F6800238DF80730ADF80430002F8A
:104300007AD004462B7813F0600634D0202E6CD17E
:10431000EA882AB313F0800F07D16B7887F8003250
:10432000EA883F2A13D8D2B212E0B63100EB8101FD
:104330004B689B68394668789847EA88072A28BFFF
:10434000072239462046FFF70BFF002651E04022A6
:1043500087F8012239462046FFF717FF002648E07C
:10436000B63100EB810463689B68002229466878B7
:10437000984700263DE06F780B2F31D8DFE807F033
:1043800006393030303030303030162690F89C32DC
:10439000DBB2032B04D02946FFF71CFB032628E0E1
:1043A000022201A9FFF7DCFE3E4622E090F89C3293
:1043B000DBB2032B04D02946FFF70CFB032618E0E1
:1043C00001220DF10701FFF7CBFE12E090F89C32BD
:1043D000DBB2032B0DD02946FFF7FCFA032608E0D9
:1043E0002946FFF7F7FA032603E02946FFF7F2FA1A
:1043F0000326304603B0F0BD0326FAE7F8B50446BD
:1044000002228021FFF793FA2B4D2870022200210F
:104410002046FFF78CFA294F38700322802120466E
:10442000FFF785FA264E307029782046FCF7F0FA1F
:104430002B7803F00F0303EB830304EB83030025C6
:104440009D8439782046FCF7E3FA3B7803F00F03AC
:1044500003EB830304EB8303A3F864513178204614
:10446000FCF7D6FA337803F00F0303EB830204EB77
:1044700082029584D584D4F8F83203F1B20204EBB9
:1044800082025268AAB1B63304EB83035B685B68AF
:104490009847D4F8F832B23304EB8303586801F03C
:1044A00067FBD4F8F832B23304EB83035D60C4F8E1
:1044B000C8520020F8BD00BF410100204201002089
:1044C00040010020F8B504464FF4077001F048FBA6
:1044D000002800F0818005464FF40772002101F0AA
:1044E0004FFBD4F8F832B23304EB83035D60C4F8B9
:1044F000C852022280212046FFF719FA554B187046
:10450000022200212046FFF712FA534B18700322B3
:1045100080212046FFF70BFA504B1870237C002BAC
:1045200063D14C4E4FF40073022231782046FCF7E1
:1045300064FA337803F00F0303EB830304EB830384
:1045400001269E84444F4FF400730222397820469E
:10455000FCF753FA3B7803F00F0303EB830304EB00
:104560008303A3F864613D4B1B7803F00F0303EB57
:10457000830304EB83031022DA84384E08230322DA
:1045800031782046FCF739FA337803F00F0303EB58
:10459000830304EB830301229A840026C5F8046296
:1045A000D4F8F832B63304EB83035B681B68984792
:1045B000C5F81462C5F81862D5F80422002A47D05D
:1045C000257C002D3CD14FF4007323490978204607
:1045D000FCF74EFA2846F8BDD4F8F832B23304EBB3
:1045E0008304002363600225F4E71A4E402302226D
:1045F00031782046FCF701FA337803F00F0303EB20
:10460000830304EB830301269E84134F402302227D
:1046100039782046FCF7F1F93B7803F00F0303EB00
:10462000830304EB8303A3F864610C4B1B7803F052
:104630000F0303EB830304EB83031022DA849CE76C
:104640004023054909782046FCF712FA0025C1E706
:104650000225BFE741010020420100204001002067
:1046600039B1D0F8F832B63300EB83004160002056
:10467000704703207047D0F8F832B23300EB830064
:1046800043682BB1C3F80812C3F81022002070470A
:1046900003207047D0F8F832B23300EB8300436850
:1046A0001BB1C3F8041200207047032070470000BC
:1046B00070B50446D0F8F832B23300EB83035E687D
:1046C00002220021FFF733F90F4B1870D4F8F832AB
:1046D000B23304EB83035B689BB10146257C45B98B
:1046E0004FF40073D6F804222046FCF7C1F928469F
:1046F00070BD4023D6F804222046FCF7B9F9002506
:10470000F5E70325F3E700BF4201002070B504463A
:104710004FF41D7001F024FA00283ED0D4F8F8328E
:10472000B23304EB83035860C4F8C802022280212C
:104730002046FFF7FCF82D4B18700222002120467E
:10474000FFF7F5F801462A4B1870237C73BB4FF432
:10475000007302222046FCF750F9254B1B7803F02A
:104760000F0303EB830304EB83030125A3F86451D8
:104770001E4E4FF40073022231782046FCF73DF9BB
:10478000337803F00F0303EB830304EB83039D846F
:10479000204600F0C3F9002070BDD4F8F832B233DF
:1047A00004EB8304002363600220F5E74023022228
:1047B0002046FCF722F90E4B1B7803F00F0303EBA6
:1047C000830304EB83030125A3F86451074E4023C0
:1047D000022231782046FCF710F9337803F00F03FA
:1047E00003EB830304EB83039D84D1E77C0100206A
:1047F0007D01002070B5044602228021FFF797F862
:104800001F4D2870022200212046FFF790F8014634
:104810001C4E30702046FCF7FBF8337803F00F0392
:1048200003EB830304EB83030026A3F86461297878
:104830002046FCF7EDF82B7803F00F0303EB83031E
:1048400004EB83039E84D4F8F832B23304EB830381
:104850005B6893B1204600F0CFF9D4F8F832B23358
:1048600004EB8303586801F083F9D4F8F832B233CB
:1048700004EB83035E60C4F8C862002070BD00BF13
:104880007C0100207D0100202DE9F04182B004462A
:104890000D46D0F8F832B23300EB83035F68002690
:1048A000ADF8066002228021FFF741F8564B1870E0
:1048B000022231462046FFF73AF8544B1870002F79
:1048C00000F0A0802B7813F060063DD0202E40F041
:1048D00090806A78FE2A07D0FF2A23D029462046F6
:1048E000FFF778F8032689E06A8812B9EA88012A76
:1048F00005D029462046FFF76DF803267EE013F029
:10490000800FF6D0D4F8F832B63304EB83035B683B
:104910009B6998473860012239462046FFF720FC02
:1049200000266BE06A884AB9EA883AB913F0800F2A
:1049300004D1204600F030F900265FE029462046E9
:10494000FFF748F8032659E095F80180B8F10B0FFE
:1049500049D8DFE808F006384848484848484848F9
:10496000192A94F89C32DBB2032B05D02946204645
:10497000FFF730F8032641E002220DF10601204640
:10498000FFF7EEFB464639E094F89C32DBB2032B8E
:1049900005D029462046FFF71DF803262EE0012208
:1049A000391D2046FFF7DCFB28E094F89C32DBB28F
:1049B000032B02D1AB787B6020E029462046FFF72D
:1049C00009F803261AE094F89C32DBB2032B15D1C8
:1049D0006B889BB929792046FCF722F82979204673
:1049E00000F0FAF90AE029462046FEF7F3FF032615
:1049F00004E029462046FEF7EDFF0326304602B0CC
:104A0000BDE8F0810326F9E77C0100207D0100204C
:104A100008B500F031F9002008BD08B500F0BCF978
:104A2000002008BD39B1D0F8F832B63300EB83006E
:104A3000416000207047032070470000F8B504462D
:104A40000F461646D0F8F83203F1B20C00EB8C0C8E
:104A5000DCF8045002228021FEF769FF0F4B18702A
:104A6000022200212046FEF762FF0D4B1870A5B10F
:104A7000D5F81832D5F83822921BC5F83822002212
:104A800085F83C2204222A72B34228BF33463A46B4
:104A9000024909782046FBF7E3FFF8BD7C010020BE
:104AA0007D01002038B50446D0F8F832B23300EB6F
:104AB00083035D6802228021FEF739FF154B1870D1
:104AC000022200212046FEF732FF134B18707DB101
:104AD00095F81C3223B9D5F818320BB16B7A43B173
:104AE0000C4B19782046FBF7A3FF6B7A022B05D0FD
:104AF00038BD01462046FBF79BFFF1E7054B1978CF
:104B00002046FBF795FF044B19782046FBF790FFF2
:104B1000EEE700BF7C0100207D01002070B5044657
:104B2000D0F8F832B23300EB83035D6802228021B3
:104B3000FEF7FDFE164B1870022200212046FEF7FC
:104B4000F6FE144B18700DB300202872687285F8B9
:104B5000610285F8600285F86202D4F8F832B63353
:104B600004EB83035B681B6898470A4E3178204644
:104B7000FBF756FF064B19782046FBF751FF1F2322
:104B800005F5047231782046FBF772FF70BD00BF57
:104B90007C0100207D01002070B50446D0F8F83279
:104BA000B23300EB83035D6802228021FEF7BFFE73
:104BB0000F4B1870022200212046FEF7B8FE0D4B65
:104BC0001870A5B100232B7201236B72084B197862
:104BD0002046FBF735FF074E31782046FBF730FFC4
:104BE0001F2305F5047231782046FBF741FF70BDA5
:104BF0007C0100207D010020D0F8F832B23300EBB8
:104C0000830043680BB100221A72704770B50446E6
:104C10000E46D0F8F832B23300EB83035D6802220F
:104C20008021FEF784FE114B1870022200212046DD
:104C3000FEF77DFE0E4B1870B5B10E4BC5F8303245
:104C400085F83C6200232B720D2305F50C72074991
:104C500009782046FBF704FF1F2305F50472044979
:104C600009782046FBF704FF70BD00BF7C010020DF
:104C70007D01002055534253D0F8F832B23300EB97
:104C800083035968D1B110B504460B7A022B08D0C2
:104C900006D3033BDBB2012B02D80021FFF7B6FF9E
:104CA00010BD01F21F2291F81D1200F08DFE0028A8
:104CB000F6DA01212046FFF7A9FFF1E7704700006F
:104CC00038B50446D0F8F832B23300EB83035D68A0
:104CD00002228021FEF72BFE2C4B187002220021AD
:104CE0002046FEF724FE2A4B1870F5B10146D5F890
:104CF0001432C5F83432D5F81832C5F838322046A7
:104D0000FBF763FE1F2804D1D5F81022214B9A42ED
:104D10000CD02023052295F81D12204600F0E6F85D
:104D200002236B722046FFF7BDFE38BD95F81D12B9
:104D30000129EED895F81E32002BEAD0102BE8D8C6
:104D400005F21F22204600F03FFE00280CDB2B7AE4
:104D5000013BDBB2022BE8D9EA688AB105F1100108
:104D60002046FFF76BFEE0E72B7A052B03D02046A9
:104D7000FFF798FED9E701212046FFF747FFD4E768
:104D800000212046FFF742FFCFE700BF7C01002053
:104D90007D01002055534243D0F8F832B23300EB86
:104DA00083035B68B3B110B504461A7A12B1012AC5
:104DB00003D010BDFFF784FFFBE703F21F2293F837
:104DC0001D1200F001FE0028F3DA01212046FFF752
:104DD0001DFFEEE77047000070B504460D46D0F8A1
:104DE000F832B23300EB83035E6802228021FEF7C3
:104DF0009EFD114B1870022200212046FEF797FD00
:104E00000E4B18705EB1737A022B09D015F0800F2B
:104E100005D0012B03D001212046FFF7F7FE70BD1E
:104E2000054B19782046FBF703FE044B1978204602
:104E3000FBF7FEFDF3E700BF7C0100207D010020B1
:104E4000D0F8F832B23300EB8300436853B11279E3
:104E500022B983F862220020D8607047012283F8CB
:104E60006222F8E74FF0FF307047844658B1C260C5
:104E700005E0013A92B2885C0CEB02031874002A38
:104E8000F7D1002070474FF0FF30704708B5D0F8D9
:104E9000F832B23300EB8300406848B113799AB21C
:104EA000172B00D917220449FFF7DFFF002008BDA8
:104EB0004FF0FF30FBE700BFD401002008B5D0F869
:104EC000F832B23300EB8300406848B1137A9AB2EB
:104ED0001B2B00D91B220449FFF7C7FF002008BD88
:104EE0004FF0FF30FBE700BFB8010020D0F8F81208
:104EF000B23100EB8100406880B190F8611201F19D
:104F0000480C00F83C2000EBCC02137100235371D5
:104F10004B1CDBB280F86132042B00D070470023B9
:104F200080F86132FAE770B5D0F8F83203F1B202D6
:104F300000EB820255687DB304460E46D5F8182270
:104F400072B995F86222022A13D0B63300EB8303BC
:104F50005B689B680846984798B90023EB6070BD72
:104F60002023052295F81D12FFF7C0FF4FF0FF30F8
:104F7000F5E73A23FFF7BAFF05232B724FF0FF3016
:104F8000EDE73A23022231462046FFF7AFFF052323
:104F90002B724FF0FF30E2E74FF0FF30DFE710B544
:104FA000D0F8F832B23300EB83035C68002C3BD0BE
:104FB000D4F818320BB100230DE02023052294F819
:104FC0001D12FFF793FF4FF0FF3028E0E11800209B
:104FD00008740133DBB2112BF8D9702323740C232E
:104FE000E37594F8603294F861128B4210D003F1AB
:104FF000480114F83100A07404EBC101087920774E
:10500000497961770133DBB284F86032042B07D031
:105010001223E3601379122B09D8E360002010BD3E
:10502000002384F86032F3E74FF0FF30F7E7002009
:10503000F5E7000010B58446D0F8F84204F1B20359
:1050400000EB8303586800283ED0D0F818326BB1CB
:10505000537813F0010F23D093788BB1802B15D1A7
:1050600008221B49FFF701FF00202CE02023052226
:1050700090F81D126046FFF739FF4FF0FF3022E035
:1050800006221449FFF7F1FE00201CE0242305222C
:1050900090F81D126046FFF729FF4FF0FF3012E035
:1050A000B6340CEB840CDCF80430DB6901EBC10195
:1050B00003EB81010B79053312799A4200D91A4624
:1050C000FFF7D3FE002010BD4FF0FF30FBE700BF1D
:1050D000F4010020EC01002010B5D0F8F832B23312
:1050E00000EB83035C682CB394F86232012B0CD084
:1050F000137903F00303012B13D0022B17D0032BDA
:1051000012D1002384F862320EE0137903F0030316
:10511000022BEDD124230522FFF7E8FE4FF0FF30EC
:1051200004E0002384F862320020E06010BD84F8BF
:105130006232F9E74FF0FF30F8E770B582B0D0F88F
:10514000F83203F1B20200EB82025468002C3DD029
:1051500005460E46B63300EB83035B685B680DF1D2
:10516000060269463046984728B994F86232022B05
:1051700001D000230DE03A23022231462846FFF7F2
:10518000B5FE4FF0FF301FE0E2180021117401332B
:105190009BB20B2BF8D90823E374009A531E190E07
:1051A0002175C3F307416175C3F30723A375013A62
:1051B000E27502232376BDF80630002262761A0AD1
:1051C000A276E3760C23E36002B070BD4FF0FF30AF
:1051D000FAE770B5D0F8F83203F1B20200EB8202C0
:1051E000546894B305460E46B63300EB83035B6800
:1051F0005B6804F5197204F51A7130469847D8B9FE
:1052000094F86232022B17D0D4F86822531E190E7C
:105210002174C3F307416174C3F30723A374013AF4
:10522000E274B4F864320022227562751A0AA2751B
:10523000E3750823E36070BD3A2302223146284615
:10524000FFF754FE4FF0FF30F5E74FF0FF30F2E785
:10525000F8B51546D0F8F83203F1B20200EB82023D
:105260005468002C53D006460F46B63300EB830338
:105270005B685B6804F5197204F51A713846984743
:10528000864680B994F86232022B0CD0AB7AE97A68
:10529000090441EA03612B7B41EA03216B7B19433B
:1052A000E16000230FE03A23022239463046FFF73F
:1052B0001DFE4FF0FF3E28E0E2184FF0000C82F890
:1052C00010C00133DBB29942F6D8D4F86822531EDD
:1052D000190E2175C3F307416175C3F30723A37545
:1052E000013AE275B4F864320022227662761A0A34
:1052F000A276E376AA7AEB7A1B0443EA02632A7B5E
:1053000043EA02236A7B1343E3607046F8BD4FF023
:10531000FF3EFAE710B5D0F8F84204F1B20C00EB0A
:105320008C0CDCF804406CB11A44D4F868329A4210
:1053300001D8002010BD21230522FFF7D7FD4FF033
:10534000FF30F7E74FF0FF30F4E700002DE9F843B6
:10535000D0F8F832B23300EB83035C68002C51D0F4
:1053600005460F46D4F87062B4F8643203FB06F6C3
:1053700002228021FEF7DBFA254B1870B6F5007F7C
:1053800028BF4FF40076D5F8F832B63305EB830327
:105390005B68D3F8109004F11008B4F86432B6FBDF
:1053A000F3F39BB2D4F86C2241463846C847002834
:1053B0001FDB33464246164909782846FBF750FB67
:1053C000B4F86432B6FBF3F2D4F86C321344C4F888
:1053D0006C32D4F870329B1AC4F87032D4F8382288
:1053E000921BC4F8382283B9032323720020BDE83E
:1053F000F8831123042239462846FFF777FD4FF042
:10540000FF30F4E74FF0FF30F1E70020EFE700BF97
:105410007C010020F8B51646D0F8F83203F1B2024C
:1054200000EB82025468002C62D005460F46227AB7
:10543000A2BB94F91C22002A38DA94F86222022ACC
:105440003DD0B63300EB83035B689B680846984702
:1054500000283AD1B278F3781B0443EA0263327928
:1054600043EA022372791A43C4F86C22F179337A41
:1054700043EA0123C4F8703239462846FFF74AFF51
:10548000002838DBD4F81822D4F87032B4F864124B
:1054900001FB03F39A4221D1022323724FF40073DC
:1054A000E36039462846FFF751FFF8BD2023052267
:1054B00094F81D12FFF71AFD4FF0FF30F5E73A237D
:1054C000FFF714FD4FF0FF30EFE73A230222394691
:1054D0002846FFF70BFD4FF0FF30E6E720230522BB
:1054E00094F81D122846FFF701FD4FF0FF30DCE76E
:1054F0004FF0FF30D9E74FF0FF30D6E7F8B515464B
:10550000D0F8F83203F1B20200EB82025468002CAA
:1055100069D006460F46227A002A3AD194F91C2215
:10552000002A3EDA94F86222022A43D0B63300EB16
:1055300083035B689B6808469847002840D1AB7896
:10554000EA78120442EA03622B7942EA03226B7979
:105550001A43C4F86C22A979EB791B0443EA01636E
:10556000297A43EA0123697A0B43C4F87032394639
:105570003046FFF7CFFE002838DBD4F81822D4F8E5
:105580007032B4F8641201FB03F39A4221D1022372
:1055900023724FF40073E36039463046FFF7D6FEBE
:1055A000F8BD2023052294F81D12FFF79FFC4FF051
:1055B000FF30F5E73A23FFF799FC4FF0FF30EFE7B4
:1055C0003A23022239463046FFF790FC4FF0FF3075
:1055D000E6E72023052294F81D123046FFF786FCEB
:1055E0004FF0FF30DCE74FF0FF30D9E74FF0FF30EE
:1055F000D6E700002DE9F843D0F8F832B23300EBDB
:1056000083035C68002C5BD005460F46D4F87062BB
:10561000B4F8643203FB06F602220021FEF787F994
:10562000294B1870B6F5007F28BF4FF40076D5F8E7
:10563000F832B63305EB83035B68D3F8149004F1BA
:105640001008B4F86432B6FBF3F39BB2D4F86C22C2
:1056500041463846C84700281ADBB4F86412B6FB46
:10566000F1F0D4F86C220244C4F86C22D4F8703201
:105670001B1AC4F87032D4F83822921BC4F83822AE
:105680007BB900212846FFF7C1FA0020BDE8F88366
:105690000323042239462846FFF728FC4FF0FF3049
:1056A000F4E701FB03F3B3F5007F28BF4FF4007369
:1056B0004246054909782846FBF7DAF90020E5E774
:1056C0004FF0FF30E2E700BF7D0100202DE9F041FF
:1056D000D0F8F832B23300EB83035D68002D00F0A0
:1056E000958004460F46164602220021FEF71FF958
:1056F000494B18702B7A002B40F08280D5F8183275
:10570000002B4DD095F91C32002B53DBD4F8F83226
:10571000B63304EB83035B689B68384698470028E0
:1057200052D1D4F8F832B63304EB83035B68DB68FC
:1057300038469847804600284FD1B278F3781B044A
:1057400043EA0263327943EA022372791A43C5F8C5
:105750006C22F179337A43EA0123C5F87032394675
:105760002046FFF7D7FD002853DBD5F87032B5F897
:10577000642202FB03F3D5F818229A4236D10122A3
:105780002A72B3F5007F28BF4FF4007305F11002B1
:10579000214909782046FBF76BF94046BDE8F081C6
:1057A0002023052295F81D122046FFF79FFB4FF09E
:1057B000FF38F2E72023052295F81D122046FFF757
:1057C00095FB4FF0FF38E8E73A230222394620469E
:1057D000FFF78CFB4FF0FF38DFE727230222394623
:1057E0002046FFF783FB4FF0FF38D6E72023052242
:1057F00095F81D122046FFF779FB4FF0FF38CCE7F4
:1058000039462046FFF7F6FE8046C6E74FF0FF38E0
:10581000C3E74FF0FF38C0E77D0100202DE9F041DC
:10582000D0F8F832B23300EB83035D68002D00F04E
:105830009F8004460F46164602220021FEF777F8A5
:105840004E4B18702B7A002B40F08C80D5F8183214
:10585000002B53D095F91C32002B59DBD4F8F832C9
:10586000B63304EB83035B689B683846984700288F
:1058700058D1D4F8F832B63304EB83035B68DB68A5
:10588000384698478046002857D1B378F2781204FA
:1058900042EA0362337942EA032273791A43C5F874
:1058A0006C22B179F3791B0443EA0163317A43EA4C
:1058B0000123717A0B43C5F8703239462046FFF751
:1058C00029FD002857DBD5F87032B5F8642202FBB9
:1058D00003F3D5F818229A423AD101222A72B3F57D
:1058E000007F28BF4FF4007305F1100223490978A7
:1058F0002046FBF7BDF84046BDE8F0812023052295
:1059000095F81D122046FFF7F1FA4FF0FF38F2E745
:105910002023052295F81D122046FFF7E7FA4FF0E5
:10592000FF38E8E73A23022239462046FFF7DEFA3D
:1059300005232B724FF0FF38DDE72723022239467B
:105940002046FFF7D3FA05232B724FF0FF38D2E73A
:105950002023052295F81D122046FFF7C7FA4FF0C5
:10596000FF38C8E739462046FFF744FE8046C2E7C5
:105970004FF0FF38BFE74FF0FF38BCE77D01002054
:1059800010B5D0F8F832B23300EB83035C68ACB1E9
:10599000537813F0020F0AD1D4F87032D4F86C2285
:1059A000FFF7B8FC00280CDB0020E06010BD2423CA
:1059B0000522FFF79BFA4FF0FF30F7E74FF0FF307B
:1059C000F4E74FF0FF30F1E710B5D0F8F832B2331A
:1059D00000EB83035C68002C70D013785A2B31D80D
:1059E0005A2B62D8DFE803F03A61613D6161616181
:1059F00061616161616161616161406161616161B8
:105A000061614943616146616161614F61526161F8
:105A100055615B616161615E61616161616161618B
:105A20006161616161616161616161616161616166
:105A30006161616161616161616161616161616156
:105A400061614C00A82B27D0AA2B02D1FFF7E6FEFC
:105A500006E09E2B29D1FFF7FBFB01E0FFF763FA7D
:105A600010BDFFF79CFAFBE7FFF7E4FAF8E7FFF752
:105A700033FBF5E7FFF7E4F9F2E7FFF707FAEFE7A3
:105A8000FFF71CFAECE7FFF758FBE9E7FFF7A1FB8C
:105A9000E6E7FFF7BFFCE3E7FFF730FDE0E7FFF7DE
:105AA00015FEDDE7FFF76CFFDAE720230522FFF79D
:105AB0001DFA022363724FF0FF30D1E74FF0FF3041
:105AC000CEE70000DFF834D00D480E490E4A00231F
:105AD00002E0D458C4500433C4188C42F9D30B4AA2
